:0400000023C07EC0DB
:10000400FDCFFCCF5EC058C0F9CFF8CFF7CF46C0C4
:10001400F5CFF4CFF3CFF2CFF1CFF0CFEFCFEECFD8
:10002400EDCF00000000000000010000C0F9A4B002
:10003400999282F880900A00040026000A00600168
:1000440030000000F894EE27ECBBF1E0FBBFEBBFFF
:10005400E5BF8DE0A2E0BB27ED938A95E9F780E048
:1000640094E0A0E6ED930197E9F7EAE3F0E08591E7
:100074009591009761F0A591B59105901590BF01F8
:10008400F00105900D920197E1F7FB01F0CFEFE548
:10009400EDBFE4E0EEBFC0E6D1E03BC0EA93FA93E3
:1000A400EFB7EA93F30131963F01ECE9E2BFE9913E
:1000B400EFBFF991E9911895FFD0E0D0E0E0E9BFF6
:1000C4000FC0FAD0ECE9E4BD4AD0E130A0E0FA0771
:1000D40021F4D9D0E0E0E9BF03C0F40131964F0127
:1000E400E991EFBFF991E991B991A9919991899118
:1000F40079916991F990199009901895EA93EFB75D
:10010400EA9388249924E0E4E9BFE991EFBFE991F7
:100114001895789418D00ED005D090D03FD05ED0EA
:10012400FCCFFFCFEBB7E064EBBFE3E0E5BFE0E477
:10013400EABF0895E2E0E3BFECE9E2BFE2E0E5BD37
:10014400ECE9E4BD0895E7EDE7BBE8E2E8BBECE3E6
:10015400E4BBE3E0E5BBE0E0E1BBE2BB0895EAE039
:10016400F0E08E169F0618F0E1E0F0E00895E0E07C
:10017400F0E008950895BA93AA93EDE9E2BFE9B7D0
:10018400E160E9BF66247724E881F9816E167F0671
:10019400D8F3E9B7EE7FE9BF2296089599990DC087
:1001A400A8ECB0E0E8DF00240414050420F4F20114
:1001B40031972F0102C04424552498990EC0A8EC0D
:1001C400B0E0D9DFE3E6F0E04E165F0618F4F20182
:1001D400319602C0E3E6F0E02F010895A7D0D201E2
:1001E400EAE0F0E096D0E05AFE4F3081D201EAE036
:1001F400F0E07CD0E05AFE4F2081022F10E018304E
:1002040050F407FD02C0AC9801C0AC9AAB98AB9A0D
:10021400000F1F5FF4CF032F10E0183050F407FDD8
:1002240002C0AC9801C0AC9AAB98AB9A000F1F5FA8
:10023400F4CFAA98AA9A7FD024960895B39909C0B6
:10024400BB24A8E8B3E197DFB39B02C0E1E0BE2E74
:100254000CC0B5990AC0A8E8B3E18DDFEB2DF0E03E
:100264003196A1E0B0E058D0BE2EE1E0EB1519F4D0
:10027400AD98B99A02C0AD9AB9980895E0E0EEBD80
:10028400E9BFC1980895E2ECEFBDE9E1EEBDE0E21B
:10029400E9BFF201AFEFB9EF21D0DF01E4E6F0E00E
:1002A40025D06F01E9EFE7BDEFEFE6BDED2DF0706E
:1002B400EBBDEC2DEABD08950A921A92FA926A9364
:1002C4007A938A939A93AA93BA93EA93FA93EFB799
:1002D400EA930895F195E195F0400895FA9FF02D81
:1002E400EB9FF00DEA9FE02DF10D089500241124F9
:1002F40090E1AA0FBB1F001C111C0E1A1F0A18F450
:100304000E0E1F1E01C0A1609A9599F7FD01D00140
:100314000895ECDFFD010895E894F7FF02C0DADFE9
:100324006894EA23FB230EF4D5DF08953A932A93C5
:100334001A930A9308953B812A81198108810895AB
:00000001FF
